{"abi":[{"type":"constructor","inputs":[],"stateMutability":"nonpayable"},{"type":"function","name":"approve","inputs":[{"name":"to","type":"address","internalType":"address"},{"name":"tokenId","type":"uint256","internalType":"uint256"}],"outputs":[],"stateMutability":"nonpayable"},{"type":"function","name":"balanceOf","inputs":[{"name":"owner","type":"address","internalType":"address"}],"outputs":[{"name":"","type":"uint256","internalType":"uint256"}],"stateMutability":"view"},{"type":"function","name":"getApproved","inputs":[{"name":"tokenId","type":"uint256","internalType":"uint256"}],"outputs":[{"name":"","type":"address","internalType":"address"}],"stateMutability":"view"},{"type":"function","name":"getScoreData","inputs":[{"name":"tokenId","type":"uint256","internalType":"uint256"}],"outputs":[{"name":"","type":"tuple","internalType":"struct ScoreNFT.ScoreData","components":[{"name":"score","type":"uint256","internalType":"uint256"},{"name":"level","type":"uint256","internalType":"uint256"},{"name":"timestamp","type":"uint256","internalType":"uint256"},{"name":"player","type":"address","internalType":"address"}]}],"stateMutability":"view"},{"type":"function","name":"isApprovedForAll","inputs":[{"name":"owner","type":"address","internalType":"address"},{"name":"operator","type":"address","internalType":"address"}],"outputs":[{"name":"","type":"bool","internalType":"bool"}],"stateMutability":"view"},{"type":"function","name":"mintScore","inputs":[{"name":"to","type":"address","internalType":"address"},{"name":"score","type":"uint256","internalType":"uint256"},{"name":"level","type":"uint256","internalType":"uint256"}],"outputs":[{"name":"","type":"uint256","internalType":"uint256"}],"stateMutability":"nonpayable"},{"type":"function","name":"name","inputs":[],"outputs":[{"name":"","type":"string","internalType":"string"}],"stateMutability":"view"},{"type":"function","name":"owner","inputs":[],"outputs":[{"name":"","type":"address","internalType":"address"}],"stateMutability":"view"},{"type":"function","name":"ownerOf","inputs":[{"name":"tokenId","type":"uint256","internalType":"uint256"}],"outputs":[{"name":"","type":"address","internalType":"address"}],"stateMutability":"view"},{"type":"function","name":"renounceOwnership","inputs":[],"outputs":[],"stateMutability":"nonpayable"},{"type":"function","name":"safeTransferFrom","inputs":[{"name":"from","type":"address","internalType":"address"},{"name":"to","type":"address","internalType":"address"},{"name":"tokenId","type":"uint256","internalType":"uint256"}],"outputs":[],"stateMutability":"nonpayable"},{"type":"function","name":"safeTransferFrom","inputs":[{"name":"from","type":"address","internalType":"address"},{"name":"to","type":"address","internalType":"address"},{"name":"tokenId","type":"uint256","internalType":"uint256"},{"name":"data","type":"bytes","internalType":"bytes"}],"outputs":[],"stateMutability":"nonpayable"},{"type":"function","name":"scores","inputs":[{"name":"","type":"uint256","internalType":"uint256"}],"outputs":[{"name":"score","type":"uint256","internalType":"uint256"},{"name":"level","type":"uint256","internalType":"uint256"},{"name":"timestamp","type":"uint256","internalType":"uint256"},{"name":"player","type":"address","internalType":"address"}],"stateMutability":"view"},{"type":"function","name":"setApprovalForAll","inputs":[{"name":"operator","type":"address","internalType":"address"},{"name":"approved","type":"bool","internalType":"bool"}],"outputs":[],"stateMutability":"nonpayable"},{"type":"function","name":"supportsInterface","inputs":[{"name":"interfaceId","type":"bytes4","internalType":"bytes4"}],"outputs":[{"name":"","type":"bool","internalType":"bool"}],"stateMutability":"view"},{"type":"function","name":"symbol","inputs":[],"outputs":[{"name":"","type":"string","internalType":"string"}],"stateMutability":"view"},{"type":"function","name":"tokenIdCounter","inputs":[],"outputs":[{"name":"","type":"uint256","internalType":"uint256"}],"stateMutability":"view"},{"type":"function","name":"tokenURI","inputs":[{"name":"tokenId","type":"uint256","internalType":"uint256"}],"outputs":[{"name":"","type":"string","internalType":"string"}],"stateMutability":"view"},{"type":"function","name":"transferFrom","inputs":[{"name":"from","type":"address","internalType":"address"},{"name":"to","type":"address","internalType":"address"},{"name":"tokenId","type":"uint256","internalType":"uint256"}],"outputs":[],"stateMutability":"nonpayable"},{"type":"function","name":"transferOwnership","inputs":[{"name":"newOwner","type":"address","internalType":"address"}],"outputs":[],"stateMutability":"nonpayable"},{"type":"event","name":"Approval","inputs":[{"name":"owner","type":"address","indexed":true,"internalType":"address"},{"name":"approved","type":"address","indexed":true,"internalType":"address"},{"name":"tokenId","type":"uint256","indexed":true,"internalType":"uint256"}],"anonymous":false},{"type":"event","name":"ApprovalForAll","inputs":[{"name":"owner","type":"address","indexed":true,"internalType":"address"},{"name":"operator","type":"address","indexed":true,"internalType":"address"},{"name":"approved","type":"bool","indexed":false,"internalType":"bool"}],"anonymous":false},{"type":"event","name":"OwnershipTransferred","inputs":[{"name":"previousOwner","type":"address","indexed":true,"internalType":"address"},{"name":"newOwner","type":"address","indexed":true,"internalType":"address"}],"anonymous":false},{"type":"event","name":"ScoreMinted","inputs":[{"name":"tokenId","type":"uint256","indexed":true,"internalType":"uint256"},{"name":"player","type":"address","indexed":true,"internalType":"address"},{"name":"score","type":"uint256","indexed":false,"internalType":"uint256"},{"name":"level","type":"uint256","indexed":false,"internalType":"uint256"}],"anonymous":false},{"type":"event","name":"Transfer","inputs":[{"name":"from","type":"address","indexed":true,"internalType":"address"},{"name":"to","type":"address","indexed":true,"internalType":"address"},{"name":"tokenId","type":"uint256","indexed":true,"internalType":"uint256"}],"anonymous":false},{"type":"error","name":"ERC721IncorrectOwner","inputs":[{"name":"sender","type":"address","internalType":"address"},{"name":"tokenId","type":"uint256","internalType":"uint256"},{"name":"owner","type":"address","internalType":"address"}]},{"type":"error","name":"ERC721InsufficientApproval","inputs":[{"name":"operator","type":"address","internalType":"address"},{"name":"tokenId","type":"uint256","internalType":"uint256"}]},{"type":"error","name":"ERC721InvalidApprover","inputs":[{"name":"approver","type":"address","internalType":"address"}]},{"type":"error","name":"ERC721InvalidOperator","inputs":[{"name":"operator","type":"address","internalType":"address"}]},{"type":"error","name":"ERC721InvalidOwner","inputs":[{"name":"owner","type":"address","internalType":"address"}]},{"type":"error","name":"ERC721InvalidReceiver","inputs":[{"name":"receiver","type":"address","internalType":"address"}]},{"type":"error","name":"ERC721InvalidSender","inputs":[{"name":"sender","type":"address","internalType":"address"}]},{"type":"error","name":"ERC721NonexistentToken","inputs":[{"name":"tokenId","type":"uint256","internalType":"uint256"}]},{"type":"error","name":"OwnableInvalidOwner","inputs":[{"name":"owner","type":"address","internalType":"address"}]},{"type":"error","name":"OwnableUnauthorizedAccount","inputs":[{"name":"account","type":"address","internalType":"address"}]}],"bytecode":{"object":"0x608060405234801562000010575f80fd5b50336040518060400160405280600e81526020016d535441524d494e542053636f726560901b8152506040518060400160405280600581526020016453434f524560d81b815250815f9081620000679190620001aa565b506001620000768282620001aa565b5050506001600160a01b038116620000a757604051631e4fbdf760e01b81525f600482015260240160405180910390fd5b620000b281620000b9565b5062000272565b600680546001600160a01b038381166001600160a01b0319831681179093556040519116919082907f8be0079c531659141344cd1fd0a4f28419497f9722a3daafe3b4186f6b6457e0905f90a35050565b634e487b7160e01b5f52604160045260245ffd5b600181811c908216806200013357607f821691505b6020821081036200015257634e487b7160e01b5f52602260045260245ffd5b50919050565b601f821115620001a5575f81815260208120601f850160051c81016020861015620001805750805b601f850160051c820191505b81811015620001a1578281556001016200018c565b5050505b505050565b81516001600160401b03811115620001c657620001c66200010a565b620001de81620001d784546200011e565b8462000158565b602080601f83116001811462000214575f8415620001fc5750858301515b5f19600386901b1c1916600185901b178555620001a1565b5f85815260208120601f198616915b82811015620002445788860151825594840194600190910190840162000223565b50858210156200026257878501515f19600388901b60f8161c191681555b5050505050600190811b01905550565b61153580620002805f395ff3fe608060405234801561000f575f80fd5b5060043610610127575f3560e01c8063715018a6116100a9578063a22cb4651161006e578063a22cb465146102f4578063b88d4fde14610307578063c87b56dd1461031a578063e985e9c51461032d578063f2fde38b14610340575f80fd5b8063715018a6146102b75780638da5cb5b146102bf57806395d89b41146102d05780639715c923146102d857806398bdf6f5146102eb575f80fd5b806323b872dd116100ef57806323b872dd146101f75780632ee691a31461020a57806342842e0e146102705780636352211e1461028357806370a0823114610296575f80fd5b806301ffc9a71461012b57806306fdde0314610153578063081812fc14610168578063095ea7b314610193578063155ebaf1146101a8575b5f80fd5b61013e61013936600461100f565b610353565b60405190151581526020015b60405180910390f35b61015b6103a4565b60405161014a919061107e565b61017b610176366004611090565b610433565b6040516001600160a01b03909116815260200161014a565b6101a66101a13660046110c2565b61045a565b005b6101bb6101b6366004611090565b610469565b60405161014a91908151815260208083015190820152604080830151908201526060918201516001600160a01b03169181019190915260800190565b6101a66102053660046110ea565b610542565b610247610218366004611090565b60086020525f90815260409020805460018201546002830154600390930154919290916001600160a01b031684565b604080519485526020850193909352918301526001600160a01b0316606082015260800161014a565b6101a661027e3660046110ea565b6105cb565b61017b610291366004611090565b6105ea565b6102a96102a4366004611123565b6105f4565b60405190815260200161014a565b6101a6610639565b6006546001600160a01b031661017b565b61015b61064c565b6102a96102e636600461113c565b61065b565b6102a960075481565b6101a661030236600461116c565b610728565b6101a66103153660046111b9565b610733565b61015b610328366004611090565b61074b565b61013e61033b36600461128e565b610851565b6101a661034e366004611123565b61087e565b5f6001600160e01b031982166380ac58cd60e01b148061038357506001600160e01b03198216635b5e139f60e01b145b8061039e57506301ffc9a760e01b6001600160e01b03198316145b92915050565b60605f80546103b2906112bf565b80601f01602080910402602001604051908101604052809291908181526020018280546103de906112bf565b80156104295780601f1061040057610100808354040283529160200191610429565b820191905f5260205f20905b81548152906001019060200180831161040c57829003601f168201915b5050505050905090565b5f61043d826108bb565b505f828152600460205260409020546001600160a01b031661039e565b6104658282336108f3565b5050565b61049960405180608001604052805f81526020015f81526020015f81526020015f6001600160a01b031681525090565b5f6104a3836105ea565b6001600160a01b0316036104f55760405162461bcd60e51b8152602060048201526014602482015273151bdad95b88191bd95cc81b9bdd08195e1a5cdd60621b60448201526064015b60405180910390fd5b505f908152600860209081526040918290208251608081018452815481526001820154928101929092526002810154928201929092526003909101546001600160a01b0316606082015290565b6001600160a01b03821661056b57604051633250574960e11b81525f60048201526024016104ec565b5f610577838333610900565b9050836001600160a01b0316816001600160a01b0316146105c5576040516364283d7b60e01b81526001600160a01b03808616600483015260248201849052821660448201526064016104ec565b50505050565b6105e583838360405180602001604052805f815250610733565b505050565b5f61039e826108bb565b5f6001600160a01b03821661061e576040516322718ad960e21b81525f60048201526024016104ec565b506001600160a01b03165f9081526003602052604090205490565b6106416109f2565b61064a5f610a1f565b565b6060600180546103b2906112bf565b600780545f918291908261066e836112f7565b91905055905061067e8582610a70565b604080516080810182528581526020808201868152428385019081526001600160a01b038a8116606086018181525f898152600887528890209651875593516001870155915160028601559151600390940180546001600160a01b031916949092169390931790558251878152908101869052909183917fc9978399ecd47160abacdae8b42b4e6dda4c0e5658d47654fb24bb99ea9d290c910160405180910390a3949350505050565b610465338383610a89565b61073e848484610542565b6105c53385858585610b27565b60605f610757836105ea565b6001600160a01b0316036107a45760405162461bcd60e51b8152602060048201526014602482015273151bdad95b88191bd95cc81b9bdd08195e1a5cdd60621b60448201526064016104ec565b5f828152600860209081526040918290208251608081018452815481526001820154928101929092526002810154928201929092526003909101546001600160a01b031660608201526107f683610c4f565b815161080190610c4f565b61080e8360200151610c4f565b835161081990610c4f565b6108268560200151610c4f565b60405160200161083a959493929190611336565b604051602081830303815290604052915050919050565b6001600160a01b039182165f90815260056020908152604080832093909416825291909152205460ff1690565b6108866109f2565b6001600160a01b0381166108af57604051631e4fbdf760e01b81525f60048201526024016104ec565b6108b881610a1f565b50565b5f818152600260205260408120546001600160a01b03168061039e57604051637e27328960e01b8152600481018490526024016104ec565b6105e58383836001610cdf565b5f828152600260205260408120546001600160a01b039081169083161561092c5761092c818486610de3565b6001600160a01b03811615610966576109475f855f80610cdf565b6001600160a01b0381165f90815260036020526040902080545f190190555b6001600160a01b03851615610994576001600160a01b0385165f908152600360205260409020805460010190555b5f8481526002602052604080822080546001600160a01b0319166001600160a01b0389811691821790925591518793918516917fddf252ad1be2c89b69c2b068fc378daa952ba7f163c4a11628f55a4df523b3ef91a4949350505050565b6006546001600160a01b0316331461064a5760405163118cdaa760e01b81523360048201526024016104ec565b600680546001600160a01b038381166001600160a01b0319831681179093556040519116919082907f8be0079c531659141344cd1fd0a4f28419497f9722a3daafe3b4186f6b6457e0905f90a35050565b610465828260405180602001604052805f815250610e47565b6001600160a01b038216610abb57604051630b61174360e31b81526001600160a01b03831660048201526024016104ec565b6001600160a01b038381165f81815260056020908152604080832094871680845294825291829020805460ff191686151590811790915591519182527f17307eab39ab6107e8899845ad3d59bd9653f200f220920489ca2b5937696c31910160405180910390a3505050565b6001600160a01b0383163b15610c4857604051630a85bd0160e11b81526001600160a01b0384169063150b7a0290610b699088908890879087906004016114a8565b6020604051808303815f875af1925050508015610ba3575060408051601f3d908101601f19168201909252610ba0918101906114e4565b60015b610c0a573d808015610bd0576040519150601f19603f3d011682016040523d82523d5f602084013e610bd5565b606091505b5080515f03610c0257604051633250574960e11b81526001600160a01b03851660048201526024016104ec565b805160208201fd5b6001600160e01b03198116630a85bd0160e11b14610c4657604051633250574960e11b81526001600160a01b03851660048201526024016104ec565b505b5050505050565b60605f610c5b83610e5e565b60010190505f8167ffffffffffffffff811115610c7a57610c7a6111a5565b6040519080825280601f01601f191660200182016040528015610ca4576020820181803683370190505b5090508181016020015b5f19016f181899199a1a9b1b9c1cb0b131b232b360811b600a86061a8153600a8504945084610cae57509392505050565b8080610cf357506001600160a01b03821615155b15610db4575f610d02846108bb565b90506001600160a01b03831615801590610d2e5750826001600160a01b0316816001600160a01b031614155b8015610d415750610d3f8184610851565b155b15610d6a5760405163a9fbf51f60e01b81526001600160a01b03841660048201526024016104ec565b8115610db25783856001600160a01b0316826001600160a01b03167f8c5be1e5ebec7d5bd14f71427d1e84f3dd0314c0f7b2291e5b200ac8c7c3b92560405160405180910390a45b505b50505f90815260046020526040902080546001600160a01b0319166001600160a01b0392909216919091179055565b610dee838383610f35565b6105e5576001600160a01b038316610e1c57604051637e27328960e01b8152600481018290526024016104ec565b60405163177e802f60e01b81526001600160a01b0383166004820152602481018290526044016104ec565b610e518383610f99565b6105e5335f858585610b27565b5f8072184f03e93ff9f4daa797ed6e38ed64bf6a1f0160401b8310610e9c5772184f03e93ff9f4daa797ed6e38ed64bf6a1f0160401b830492506040015b6d04ee2d6d415b85acef81000000008310610ec8576d04ee2d6d415b85acef8100000000830492506020015b662386f26fc100008310610ee657662386f26fc10000830492506010015b6305f5e1008310610efe576305f5e100830492506008015b6127108310610f1257612710830492506004015b60648310610f24576064830492506002015b600a831061039e5760010192915050565b5f6001600160a01b03831615801590610f915750826001600160a01b0316846001600160a01b03161480610f6e5750610f6e8484610851565b80610f9157505f828152600460205260409020546001600160a01b038481169116145b949350505050565b6001600160a01b038216610fc257604051633250574960e11b81525f60048201526024016104ec565b5f610fce83835f610900565b90506001600160a01b038116156105e5576040516339e3563760e11b81525f60048201526024016104ec565b6001600160e01b0319811681146108b8575f80fd5b5f6020828403121561101f575f80fd5b813561102a81610ffa565b9392505050565b5f5b8381101561104b578181015183820152602001611033565b50505f910152565b5f815180845261106a816020860160208601611031565b601f01601f19169290920160200192915050565b602081525f61102a6020830184611053565b5f602082840312156110a0575f80fd5b5035919050565b80356001600160a01b03811681146110bd575f80fd5b919050565b5f80604083850312156110d3575f80fd5b6110dc836110a7565b946020939093013593505050565b5f805f606084860312156110fc575f80fd5b611105846110a7565b9250611113602085016110a7565b9150604084013590509250925092565b5f60208284031215611133575f80fd5b61102a826110a7565b5f805f6060848603121561114e575f80fd5b611157846110a7565b95602085013595506040909401359392505050565b5f806040838503121561117d575f80fd5b611186836110a7565b91506020830135801515811461119a575f80fd5b809150509250929050565b634e487b7160e01b5f52604160045260245ffd5b5f805f80608085870312156111cc575f80fd5b6111d5856110a7565b93506111e3602086016110a7565b925060408501359150606085013567ffffffffffffffff80821115611206575f80fd5b818701915087601f830112611219575f80fd5b81358181111561122b5761122b6111a5565b604051601f8201601f19908116603f01168101908382118183101715611253576112536111a5565b816040528281528a602084870101111561126b575f80fd5b826020860160208301375f60208483010152809550505050505092959194509250565b5f806040838503121561129f575f80fd5b6112a8836110a7565b91506112b6602084016110a7565b90509250929050565b600181811c908216806112d357607f821691505b6020821081036112f157634e487b7160e01b5f52602260045260245ffd5b50919050565b5f6001820161131457634e487b7160e01b5f52601160045260245ffd5b5060010190565b5f815161132c818560208601611031565b9290920192915050565b7f646174613a6170706c69636174696f6e2f6a736f6e3b757466382c7b226e616d81527365223a22535441524d494e542053636f7265202360601b60208201525f865161138a816034850160208b01611031565b7f222c226465736372697074696f6e223a2253636f726520416368696576656d65603491840191820152630373a1d160e51b605482015286516113d4816058840160208b01611031565b700103837b4b73a399030ba102632bb32b61607d1b605892909101918201528551611406816069840160208a01611031565b7f222c2261747472696275746573223a5b7b2274726169745f74797065223a2253606992909101918201526d31b7b9329116113b30b63ab2911d60911b608982015261149c61148d61148761145e609785018961131b565b7f7d2c7b2274726169745f74797065223a224c6576656c222c2276616c7565223a815260200190565b8661131b565b627d5d7d60e81b815260030190565b98975050505050505050565b6001600160a01b03858116825284166020820152604081018390526080606082018190525f906114da90830184611053565b9695505050505050565b5f602082840312156114f4575f80fd5b815161102a81610ffa56fea26469706673582212204152e1b836df32d89465f9f04c40028955ef60699a126270e28e9feb64b22f7564736f6c63430008140033","linkReferences":{}},"methodIdentifiers":{"approve(address,uint256)":"095ea7b3","balanceOf(address)":"70a08231","getApproved(uint256)":"081812fc","getScoreData(uint256)":"155ebaf1","isApprovedForAll(address,address)":"e985e9c5","mintScore(address,uint256,uint256)":"9715c923","name()":"06fdde03","owner()":"8da5cb5b","ownerOf(uint256)":"6352211e","renounceOwnership()":"715018a6","safeTransferFrom(address,address,uint256)":"42842e0e","safeTransferFrom(address,address,uint256,bytes)":"b88d4fde","scores(uint256)":"2ee691a3","setApprovalForAll(address,bool)":"a22cb465","supportsInterface(bytes4)":"01ffc9a7","symbol()":"95d89b41","tokenIdCounter()":"98bdf6f5","tokenURI(uint256)":"c87b56dd","transferFrom(address,address,uint256)":"23b872dd","transferOwnership(address)":"f2fde38b"},"id":0}